:020000040800F2
:100000000807002029020008E71500088D140008E1
:10001000E51500081F04000805190008000000008D
:10002000000000000000000000000000EB150008C8
:100030002104000800000000E9150008ED15000883
:10004000430200084302000843020008430200087C
:10005000430200084302000843020008430200086C
:10006000430200084302000843020008430200085C
:10007000430200084302000843020008430200084C
:10008000430200084302000843020008430200083C
:10009000430200084302000843020008430200082C
:1000A000430200084302000843020008430200081C
:1000B00091160008430200084302000843020008AA
:1000C00043020008430200084302000843020008FC
:1000D00043020008430200084302000843020008EC
:1000E00043020008430200084302000843020008DC
:1000F00043020008430200084302000843020008CC
:1001000043020008430200084302000843020008BB
:1001100043020008430200084302000843020008AB
:10012000430200084302000843020008430200089B
:10013000430200084302000843020008430200088B
:10014000430200084302000843020008430200087B
:10015000430200084302000843020008430200086B
:10016000430200084302000843020008430200085B
:100170004302000843020008430200080000000098
:10018000430200084302000800F002F800F03CF8C7
:100190000AA090E8000C82448344AAF10107DA45E2
:1001A00001D100F031F8AFF2090EBAE80F0013F0F8
:1001B000010F18BFFB1A43F0010318473C1D000054
:1001C0005C1D0000103A24BF78C878C1FAD85207E5
:1001D00024BF30C830C144BF04680C6070470000C1
:1001E0000023002400250026103A28BF78C1FBD840
:1001F000520728BF30C148BF0B6070471FB501F0E0
:1002000069FE1FBD10B510BD00F0CFF81146FFF715
:10021000F5FF01F089FB00F0EDF803B4FFF7F2FF02
:1002200003BC00F0F5F80000094880470948004782
:10023000FEE7FEE7FEE7FEE7FEE7FEE7FEE7FEE796
:10024000FEE7FEE704480549054A064B70470000F3
:100250008116000889010008080100200807002015
:10026000080300200803002053EA020C00F0698014
:100270002DE9F04B4FF00006002B1FBFB3FA83F5BA
:1002800003FA05F424FA05F65E4012BF1643B2FAEB
:1002900082F502FA05F4C5F120051EBF22FA05FC1D
:1002A00044EA0C04203556EA044C4FEA144418BFC3
:1002B000641C4FF000084FF00009904271EB030CF2
:1002C00039D3002919BFB1FA81F701FA07F6B0FA5C
:1002D00080F700FA07F6C7F120071EBF20FA07FCD7
:1002E00046EA0C062037B6FBF4FCA7EB0507103FE7
:1002F00007F01F0BCBF120060CFA0BFB2CFA06F6CD
:1003000044BFB3460026202FA4BF5E464FF0000B2B
:100310005BEA060C08BF4FF0010B19EB0B09ABFBB6
:10032000027C48EB0608C01B06FB02CC0BFB03CC8F
:1003300071EB0C01C1E70B46024641464846BDE859
:10034000F08B13B54FF000004FF00001AFF30080C9
:10035000BDE81C4070474FF0000200B513469446BC
:100360009646203922BFA0E80C50A0E80C50B1F10D
:100370002001BFF4F7AF090728BFA0E80C5048BF21
:100380000CC05DF804EB890028BF40F8042B08BFBF
:10039000704748BF20F8022B11F0804F18BF00F8BB
:1003A000012B7047704770477047754600F02CF876
:1003B000AE4605006946534620F00700854618B052
:1003C00020B5FFF73FFFBDE820404FF000064FF09B
:1003D00000074FF000084FF0000B21F00701AC467A
:1003E000ACE8C009ACE8C009ACE8C009ACE8C00999
:1003F0008D46704710B50446AFF300802046BDE837
:100400001040FFF70ABF000000487047A800002016
:1004100001491820ABBEFEE7260002007047FEE748
:10042000704772B6FEE7000008480068406A9FED1A
:10043000081A00B200EE100AF8EEC00A80EE810A37
:10044000DFED040A20EE200A704700006000002063
:1004500000C0A8440000B44310B54FF080402DED1B
:10046000028B406A00B201F01FFC9FED111B53ECA0
:10047000112B01F031FC9FED101B53EC112B01F0FF
:100480002BFC9FED0F8B53EC182B01F025FC53EC4C
:10049000182B01F021FC9FED0C1B53EC112B01F0EC
:1004A000ABFA01F077FABDEC028B00EE100A10BD3A
:1004B0004AD8124DFB210940000000000000004016
:1004C000D26F5F07CE19A13F0E2DB29DEFA7F33F6C
:1004D0002DE9F84FDFF8BCA10022012503264FF0DB
:1004E0000F090AF1040BAAF1040E00BF0B6805FA0C
:1004F00002F42340A34270D10F7907F00307012FC4
:1005000001D0022F16D187684FEA420806FA08FC8C
:1005100027EA0C07D1F80CC00CFA08FC4CEA070CCF
:10052000C0F808C04768A7430C79C4F3001494408E
:100530003C4344600C79E443A4070AD0C4684FEA02
:10054000420C06FA0CF7BC438F6807FA0CF72743F6
:10055000C7600C7904F00304022C12D1D40800EB1C
:10056000840CDCF820405707FF0E09FA07F824EA4C
:100570000804D1F8108008FA07F848EA0408CCF813
:10058000208004684FEA420C06FA0CF7BC430F794E
:1005900007F0030707FA0CF7274307604C6814F4C9
:1005A000403F70D03C4C276847F480472760246860
:1005B00022F0030704F480440094384C07EB040C49
:1005C000DCF8084897074FEA177809FA08F7BC43A0
:1005D000334FB84202D1002724E054E0314FB842F3
:1005E00001D101271EE0304FB84201D1022719E0A6
:1005F0002E4FB84201D1032714E02D4FB84201D14C
:1006000004270FE02B4FB84201D105270AE02A4FFB
:10061000B84201D1062705E0284FB84201D107278B
:1006200000E0082707FA08F72743CCF80878DAF83B
:1006300000405746D1F804C09C435FEACC2C00D55B
:100640001C433C60DBF800405F46D1F804C09C438B
:100650005FEA8C2C00D51C433C60DEF800407746F6
:10066000D1F804C09C435FEA8C3C00D51C433C603D
:10067000084F083F3C68D1F804C09C435FEACC3C7B
:1006800000D51C433C60521C102AFFF42FAFBDE87C
:10069000F88F0000083C014044380240003001401F
:1006A000000002400004024000080240000C02402A
:1006B000001002400014024000180240001C0240DA
:1006C00001488068704700000800002002488168E7
:1006D0000278114481607047080000200B4810B573
:1006E000016841F400710160016841F480610160BA
:1006F000016841F480710160032000F06FF80F2061
:1007000000F006F800F024F8002010BD003C024084
:1007100070B50D4D04464FF47A712878B1FBF0F0B6
:100720000A490968B1FBF0F000F0EAFA48B9102C68
:1007300007D200222146501E00F030F800206C60E5
:1007400070BD012070BD00000800002014000020D2
:100750000A4808B5016841F480410160006800F46E
:10076000804000900548001F016841F08051016001
:10077000006800F08050009008BD0000443802403E
:10078000002809DB00F01F02012191404009800090
:1007900000F1E020C0F8001170470000F0B40E4BEB
:1007A0001B680C46C3F30223C3F10705042D00D9CF
:1007B0000425191D072901D2002300E0DB1E0126B4
:1007C00006FA05F1491E214099409E40761E1640CA
:1007D0003143F0BC01F097B80CED00E0064900F0A1
:1007E000070208684FF6FF03184040EA0220034A58
:1007F00010430860704700000CED00E00000FA05AF
:100800002DE9F0470E46050065D0DFF81481D8F8D1
:100810000000F7B200F00700B04207D288F800707D
:10082000D8F8000000F00700B04254D128683D4CD1
:10083000810712D5400703D5206840F4E0502060BE
:100840002878000703D5206840F4604020602068C5
:10085000A96820F0F000084320602878C0072DD058
:10086000304968680839012812D0022813D00328BB
:1008700011D00968890700292DDA216821F00301C8
:1008800001432160FFF71CFF814641F2883A0EE0E8
:1008900009688903EFE709688901ECE7FFF710FFB2
:1008A000A0EB0901514502D90320BDE8F08720687B
:1008B000696800F00C00B0EB810FEFD1D8F80010A0
:1008C000404601F00701B14207D90770006800F007
:1008D0000700B04201D00120E7E72878400705D59E
:1008E0002068E96820F4E050084320602878000779
:1008F00006D52068296920F4604040EAC1002060E4
:1009000000F018F82168084AC1F30311515CC8408F
:100910000649086006480068FFF7FAFE0020C4E7B1
:10092000003C024008380240E81E00081400002085
:100930000C000020154810B5006810F00C02144897
:1009400013D04110042A0FD0082A0ED10F4C241FB7
:100950002268236802F03F025B0207D52068C0F3DB
:100960008810A0FB010106E0084610BD2168C1F314
:100970008811A1FB00010023FFF776FC2168C1F379
:100980000141491C4900B0FBF1F010BD083802409C
:100990000024F4002DE9F84F04006ED02078DFF831
:1009A0004C93C007A9F104054AD009F1040001687D
:1009B000C1F38101012908D00068C0F38100022839
:1009C0000AD1D9F80000400206D52868800337D53F
:1009D00060680028E1D033E06068B0F5803F10D057
:1009E000B0F5A02F286810D020F480302860286847
:1009F00020F4802028606068A8B1FFF761FE0646F9
:100A00000DE0286840F48030F4E740F4802028604E
:100A1000F7E700BFFFF754FE801B642873D82868EF
:100A20008003F7D50CE0FFF74BFE064605E000BF5C
:100A3000FFF746FE801B6428F0D828688003F7D4AF
:100A40002078DFF8AC8280074FF0000A3ED5A74837
:100A5000001D016811F00C0F08D00068C0F3810080
:100A600002280BD1D9F80000400207D4286880077B
:100A700016D5E068012800D112E033E1E068B8B192
:100A80000120C8F80000FFF71BFE064605E000BF86
:100A9000FFF716FE801B0228C0D828688007F7D50C
:100AA0002868216920F0F80040EAC10028600DE0C4
:100AB000C8F800A0FFF704FE064604E0FFF700FEBA
:100AC000801B02281FD828688007F7D420780007E9
:100AD00022D5864F87486169703771B10121016065
:100AE000FFF7EEFD064604E0FFF7EAFD801B022853
:100AF00009D838688007F7D50EE0C0F800A0FFF7E6
:100B0000DFFD064605E082E0FFF7DAFD801B0228E4
:100B10007DD838688007F7D42078400768D5DFF89B
:100B2000CCB100270BF13C0BDBF80000C0000BD46C
:100B3000DBF8001041F08051CBF80010DBF800002A
:100B4000012700F0805000906B4E3068C00510D433
:100B5000306840F480703060FFF7B2FD009005E02F
:100B6000FFF7AEFD0099401A022850D83068C00542
:100B7000F6D55E4EA0686C3601280FD00528306887
:100B800010D020F001003060306820F004003060A8
:100B9000A068B8B1FFF794FD00900FE0306840F016
:100BA0000100F4E740F004003060F7E7FFF788FD4C
:100BB0000099411A41F28830814266D83068800736
:100BC000F4D50EE0FFF77CFD009007E0FFF778FD1D
:100BD0000099411A41F28830814256D83068800726
:100BE000F4D42FB1DBF8001021F08051CBF80010C5
:100BF000A069C8B33D49091D0968C1F381010229F3
:100C00004AD00228504607D0C8F8600000E03CE017
:100C1000FFF756FD04463BE04746C8F86000FFF783
:100C20004FFD064605E000BFFFF74AFD801B022886
:100C30002BD828688001F7D4D4E907010843A16ABA
:100C40002E4A490802EB0141626A41EA82110843D7
:100C500094F82C1040EA0161C9F8001001203866B0
:100C6000FFF72EFD044606E03EE000BFFFF728FD3B
:100C7000001B022809D828688001F7D534E000BF9E
:100C8000FFF71EFD001B022802D90320BDE8F88FE4
:100C900028688001F4D427E00128F7D0D9F80000B3
:100CA000E26900F4800191421CD1226A00F03F0108
:100CB000914217D147F6C071626A0140B1EB821FC1
:100CC00010D1A26A4FF0FF3300F4403103EB52021F
:100CD000B1EB024F06D194F82C1000F07060B0EB2D
:100CE000016F01D00120D1E70020CFE70438024096
:100CF00000004742800E4742007000400000FFFFA6
:100D000010B5401EB0F1807F01D3012010BD4FF01F
:100D1000E02460610F21601700F0F5FD0020A06164
:100D200007202061002010BD7047704710B590F873
:100D30003C20012A22D0012280F83C20CA688C681D
:100D400022F4407222434C6822F4806222430C68F1
:100D500022F4006222430C6922F4805222434C693F
:100D600022F400522243C969002322F480420A433C
:100D700001684A6480F83C30002010BD022010BD9C
:100D800070B590F83C20012A32D0012480F83C4014
:100D9000022280F83D2003685A689D6822F07006A0
:100DA0000A6832435A60134B02689A4214D0B2F177
:100DB000804F11D0104B9A420ED0104B9A420BD05C
:100DC0000F4B9A4208D00F4B9A4205D00E4B9A42D5
:100DD00002D00E4B9A4204D1496825F08003194392
:100DE000916080F83D40002180F83C10084670BDBD
:100DF000022070BD000001400004004000080040D7
:100E0000000C004000040140004001400018004078
:100E100090F83D10012901D001207047022180F88F
:100E20003D1000681149884214D0B0F1804F11D0B4
:100E30000F4988420ED00F4988420BD00E49884294
:100E400008D00E49884205D00D49884202D00D498C
:100E5000884204D1816801F00701062903D00168A6
:100E600041F00101016000207047000000000140D6
:100E70000004004000080040000C00400004014055
:100E8000004001400018004090F83D10012901D0B9
:100E900001207047022180F83D100168CA6842F0C5
:100EA0000102CA6000681149884214D0B0F1804F35
:100EB00011D00F4988420ED00E4988420BD00E49FE
:100EC000884208D00D49884205D00D49884202D099
:100ED0000C49884204D1816801F00701062903D03A
:100EE000016841F0010101600020704700000140ED
:100EF0000004004000080040000C004000040140D5
:100F000000400140001800402DE9F0410D4604006A
:100F100003D094F83D0018B108E00120BDE8F0814D
:100F2000002084F83C00204600F040F8022084F8BD
:100F30003D002068816844F2070291438160211DD1
:100F4000206800F0ABFB226890689169166A2B68F4
:100F5000AF69034340F20330814341EA0721A868A7
:100F6000EF6908434FF6FC418843E96840EA0720EF
:100F7000014328692F6A000140EA07300843696885
:100F80006D6926F0AA0646EA051529439360226892
:100F9000906154F8460B0162012004F81F09E075C6
:100FA0002076E0762077A0750020B7E710B586B0F0
:100FB000044614216846FFF7CEF92068B0F1804F4F
:100FC00027D115480021026842F001020260006842
:100FD00000F00100059010481038026842F001024C
:100FE0000260006800F001000590032000900220DC
:100FF000CDE901010120CDE9031069460748FFF75B
:1010000067FA002211461C20FFF7C8FB1C20FFF7DF
:10101000B7FB06B010BD000040380240000002409F
:1010200070B590F83E60044690F83F5090F842301A
:1010300090F84320022021B104290ED0012E1BD1AB
:1010400014E0012E18D1012B16D184F83E0084F84B
:10105000420001220021206820E0012D0CD1012A4C
:101060000AD184F83F0084F8430014E0012D03D135
:10107000012B01D1012A01D0012070BD84F83E006E
:1010800084F83F0084F8420084F8430001220021E4
:10109000206800F067FB01220421206800F062FB59
:1010A0002068016841F001010160002070BD7047B7
:1010B00070B50446006801694FF00005C94389070F
:1010C00015D4C168C943890711D4E91E0161012003
:1010D0002077206880698007204602D0FFF7E7FF6D
:1010E00004E000F0C3F8204600F068F92577206896
:1010F0000169C943490717D4C168C943490713D4D3
:101100006FF004010161022020772068806910F4EB
:10111000407F204602D0FFF7CAFF04E000F0A6F8A7
:10112000204600F04BF9257720680169C94309077B
:1011300016D4C168C943090712D46FF008010161D0
:10114000042020772068C0698007204602D0FFF77E
:10115000AEFF04E000F08AF8204600F02FF9257772
:1011600020680169C943C90617D4C168C943C906C3
:1011700013D46FF010010161082020772068C06946
:1011800010F4407F204602D0FFF791FF04E000F00A
:101190006DF8204600F012F9257720680169C943EF
:1011A000C90708D1C168C943C90704D1891E0161B3
:1011B000204600F069F920680169C943090609D48D
:1011C000C168C943090605D46FF08001016120465A
:1011D000FFF7AAFD20680169C943490609D4C1681F
:1011E000C943490605D46FF040010161204600F073
:1011F0004CF920680169C94389060BD4C168C94309
:10120000890607D46FF0200101612046BDE87040D7
:10121000FFF78BBD70BD000010B586B004461421E9
:101220006846FFF798F80E492068884216D10D48A5
:101230000021026842F010020260006800F0100015
:1012400005904FF4206000900220CDE901010120BB
:10125000CDE9031069460448FFF73AF906B010BD1E
:10126000000001403038024000100240704770B565
:10127000044690F83C0000260D4601280FD00120BE
:1012800084F83C006AB1042A1DD0082A2FD00C2A09
:101290003FD00126002084F83C00304670BD02207B
:1012A00070BD206800F06CFA2068816941F0080187
:1012B00081612068816921F0040181612068816970
:1012C0002A69114311E0206800F08AFA20688169D8
:1012D00041F4006181612068816921F4806181614C
:1012E000206881692A6941EA02218161D2E7206888
:1012F00000F0ACFA2068C16941F00801C1612068C2
:10130000C16921F00401C1612068C1692A691143E2
:1013100011E0206800F0CEFA2068C16941F4006154
:10132000C1612068C16921F48061C1612068C1691F
:101330002A6941EA0221C161ACE710B5040003D07B
:1013400094F83D0010B107E0012010BD002084F8A2
:101350003C00204600F01EF8022084F83D00211DCC
:10136000206800F09BF9012084F8460084F83E00D4
:1013700084F83F0084F8400084F8410084F842007B
:1013800084F8430084F8440084F8450084F83D0064
:10139000002010BD08B500680649884208D10648FB
:1013A000016841F001010160006800F00100009057
:1013B00008BD0000000001404438024070470000B2
:1013C00010B50446022249B104290ED0082913D0D1
:1013D00094F84100012816D0012010BD94F83E0079
:1013E0000128F9D184F83E200FE094F83F0001284D
:1013F000F2D184F83F2008E094F840000128EBD1B6
:1014000084F8402001E084F841200122206800F0A7
:10141000A9F916492068164A884201D0904203D1A2
:10142000436C43F4004343642068884213D0B0F116
:10143000804F10D00F4988420DD00F4988420AD002
:101440000E49884207D0904205D00D49884202D00B
:101450000C49884204D1816801F00701062903D0B4
:10146000016841F001010160002010BD0000014051
:10147000000401400004004000080040000C00404F
:10148000004001400018004070477047FEE7000030
:101490000D4808B5016841F080010160016801F064
:1014A00080010091016841F001010160016801F0D3
:1014B00001010091016841F010010160006800F035
:1014C0001000009008BD00003038024010B592B006
:1014D00000240F941C2168461094FEF73CFF202145
:1014E00007A8FEF738FF24482249C0E900144FF44A
:1014F000FA51C0E90241046144618461FFF71DFFB4
:1015000008B1FEF78EFF0F940FA91B481094FFF748
:1015100037FC08B1FEF785FF6020CDE90004029496
:101520000394049405940022694613480694FFF737
:101530009EFE08B1FEF775FF042269460E48FFF7CC
:1015400096FE08B1FEF76DFF0794089409944FF4D6
:1015500000500A94CDE90B4007A907480E94FFF705
:10156000E5FB08B1FEF75DFF0348FFF755FE12B03B
:1015700010BD0000000001401800002010B58CB024
:1015800024216846FEF7E7FE0024154809944FF031
:1015900080410A94C0E900144FF6FF71C0E902418E
:1015A000046184610320CDE900040120CDE9020437
:1015B0000494CDE905400794694609480894FFF76B
:1015C000A3FC08B1FEF72DFF099409A904480A9469
:1015D000FFF7D6FB002801D0FEF723FF0CB010BDAB
:1015E00060000020FEE7FEE770477047FFF76EB827
:1015F00030B593B030216846FEF7ADFE14210CA83B
:10160000FEF7A9FE1C480025016841F080510160E9
:10161000006800F0805011901848016841F4804142
:1016200001600068022400F48040119001200090C5
:10163000000401908001CDE9064008AA0420482159
:1016400082E813000B906846FFF7A4F908B172B660
:10165000FEE70CA90F2081E831004FF480500F9075
:10166000109002210CA8FFF7CBF8002801D072B629
:10167000FEE713B030BD000040380240007000406B
:101680000248016841F470010160704788ED00E094
:101690000148FFF70DBD000060000020F0B50268B2
:1016A000254C264D264E274F274B4FF0804CA0420D
:1016B00009D0604507D0A84205D0B04203D0B84257
:1016C00001D0984204D122F0700E4A6842EA0E021C
:1016D000A0421BD0604519D0A84217D0B04215D007
:1016E000B84213D0984211D0184DA8420ED0184DD0
:1016F000A8420BD0174DA84208D0174DA84205D0DC
:10170000164DA84202D0164DA84203D122F44075CE
:10171000CA682A434D6922F080022A4302608A681F
:10172000C2620A688262A04201D0984201D109696E
:10173000016301214161F0BD00000140000400404F
:1017400000080040000C004000040140004001403F
:10175000004401400048014000180040001C0040C7
:101760000020004010B501F01F030121046A9940D8
:101770008C430462016A9A401143016210BD00006B
:10178000F0B5026A22F001020262036A42688469CB
:10179000124E24F073050C682C4323F002058B686D
:1017A0002B430D4DA84201D0B04205D123F00807CC
:1017B000CB683B4323F00403A84201D0B04205D1DB
:1017C0004D6922F4407215438A692A43426084615C
:1017D000496841630362F0BD00000140000401401C
:1017E000F0B5026A22F010020262026A436884695C
:1017F0000D6824F4E64444EA05248D6822F02002B2
:1018000042EA05120F4D104EA84201D0B04206D157
:10181000CF6822F0800242EA071222F04002A8427A
:1018200001D0B04207D14D6923F4406343EA8503F8
:101830008D6943EA8503436084614968816302627C
:10184000F0BD00000000014000040140F0B5026A54
:1018500022F480720262026A4368C46922F4007250
:1018600024F073050C68124E2C438D6842EA052261
:101870000E4DA84201D0B04206D1CF6822F40062DA
:1018800042EA072222F48062A84201D0B04207D186
:101890004D6923F4405343EA05138D6943EA051368
:1018A0004360C4614968C1630262F0BD0000014049
:1018B0000004014030B5026A22F480520262046AD8
:1018C0004268C3690D6823F4E64343EA05238D6843
:1018D00024F4005444EA0534084DA84202D0084DCF
:1018E000A84204D14D6922F4804242EA8512426046
:1018F000C36149680164046230BD0000000001401A
:1019000000040140FEE70907090E002804DB00F18E
:10191000E02080F80014704700F00F0000F1E02094
:1019200080F8141D70470000FEF7D8FEFFF760FE38
:10193000FFF7AEFDFFF7CAFDFFF720FE1248FFF7E5
:10194000A3FA1148FFF764FA00210F48FFF738FDAA
:1019500004210D48FFF734FD3C210C48FFF760FBE4
:101960000A48FFF791FA0948FFF752FA084C00BFFE
:10197000FEF772FDBDEEC00A84ED000AFEF754FDCD
:1019800084ED010AF4E70000180000206000002048
:101990000000002021F00042A2F16052B2F5801F49
:1019A00001F0004328BFD2F17F6C0BD95FEA001C25
:1019B00043EAC20242EB507018BF704728BF20F0C4
:1019C00001007047B2F5801FBCBF184670474FEA50
:1019D000410C1CF5001F02D2084600F080BA70B519
:1019E00000F024FA00000089FFF7F6BF4FF0004036
:1019F000A0F58000704700002DE9C04130B4DFF849
:101A0000A0C23CEA111418BF3CEA131400F0EC80A9
:101A100081EA03051CEA111444EAD57418BF1CEAD4
:101A2000131500F0C780A4EB05044FF0004545EA0C
:101A3000C12145EAC32341EA505143EA525304F11C
:101A40007F74994204F500344FEAC0204FEAC22265
:101A500008BF904200F09C804FEA13650FF24016D9
:101A6000765D4FEA134506FB05F7C7F1807706FB65
:101A700007F74FEAD737A7FB03687642C8F58038E7
:101A8000A7FB06CE38BFA8F1010807FB08E64FF018
:101A9000000EA6FB028CE6FB03CEDCF1000CCEF1BF
:101AA000004E38BFAEF1010EA6FB0C584FF00007F8
:101AB0004FF00005E6FB0E87A1FB08C6A0FB07CE92
:101AC00016EB0E0645F10005E1FB076515F1E04E4A
:101AD0007EBFA4F580345FEA46066D4116F18007AB
:101AE00045F100054FEA17274FEA066647EA056702
:101AF000A6F1DE46B6F1805F4FEA15251FD93846BC
:101B000024F0010C05EBC471BCF1FE6F01EB0C116C
:101B100002D8F0BCBDE8008124425CBF01F5801E04
:101B20009EEAC47F02D4F0BCBDE80081244238D4D0
:101B3000F0BCA1F1C041BDE8004100F0C5B94FEAD9
:101B4000D22242EA43524FEAD323A7FB02864FEA4E
:101B5000D02040EA415007FB03661EEA0E0F4FEA11
:101B6000D12105FB026658BFA6EB0056B6EB005626
:101B70004FEA520E4EEAC37E18EB0E0E56EB530E92
:101B8000BDD518EB02085E417F1C55F10005B6E794
:101B90004FF480154FF000074FF000064FF000089B
:101BA000ADE7F0BC4FF0000001F1C04101F0004191
:101BB000BDE8008111EA0C1F0CEA131500D00CE0FF
:101BC00013EA0C1F00F025804FF00000F0BC81EA02
:101BD000030101F00041BDE80081F0BCBDE8004117
:101BE00081EA030100F070B9F0BCBDE8004170B5B6
:101BF00000F01CF9097EFC3E00F007B881EA030101
:101C00004FF0000001F00041704781EA030100F04D
:101C10005BB9F0BCBDE800414FF0000021497047BE
:101C2000FFFDFBF9F7F5F4F2F0EEEDEBE9E8E6E4A1
:101C3000E3E1E0DEDDDBDAD8D7D5D4D3D1D0CFCD28
:101C4000CCCBCAC8C7C6C5C4C2C1C0BFBEBDBCBB61
:101C5000BAB9B8B7B6B5B4B3B2B1B0AFAEADACAB5C
:101C6000AAA9A8A8A7A6A5A4A3A3A2A1A09F9F9E36
:101C70009D9C9C9B9A9999989797969595949393E8
:101C8000929191908F8F8E8E8D8C8C8B8B8A89897F
:101C90008888878786858584848383828281818002
:101CA0000000FF070000F87F10F0004248BF4042EC
:101CB000B0FA80F310FA03F10AD0C3F11D0303F563
:101CC00080634FEA415002EB035202EBD12170478F
:101CD0004FF0000070470000DFF848C170B51CEA03
:101CE000111E1EBF1CEA13159EEA0C0F95EA0C0F7D
:101CF00000F06F8081EA030423EA4C134EEAD47E9D
:101D000021EA4C1141F4801143F48013AE44A1FB4D
:101D1000024CA0FB0365AEF17F7E361955EB0C0536
:101D2000A1FB034C4CF10003A0FB021C16EB0C06BC
:101D3000654153F10003094218BF46F0010613F450
:101D4000007F0BD14FEA03314FEA0530340341EAFB
:101D5000155140EA16506FF003020AE04FEAC32122
:101D60004FEAC520F40241EA555140EA56506FF05F
:101D7000020202EB2E4201EB025585EACE710AD037
:101D80005FEA440C18BF24F0004450F1000041F118
:101D9000000120EAD47040F2FE7C624500D270BDA2
:101DA000A84214BF4FF080444FF04044002E08BFBB
:101DB0000024BEF1806FA8BFA1F1C041BDE8704012
:101DC00080F282804FF0000001F1C04101F000413B
:101DD00070479EEA0C0F0CEA131518BF95EA0C0F1A
:101DE00006D04FF0000081EA030E0EF0004170BDF6
:101DF00000F01CF88900013E00F007B800F009B8B7
:101E00004FEA430C5FEA5C5C08D081EA030100F012
:101E10005BB84FEA410C5FEA5C5CF6D14FF0000022
:101E2000014970470000FF070000F87F0EF1020E25
:101E30002EF0030E5EF8046B364205D4012A43EB04
:101E4000030515F5001F12D8012841EB010C1CF504
:101E5000001F0CD80ED14FEAD17C15F5001F0CEBFA
:101E60004C0C0CF1020C08BF4CEBD37C04E04FF09F
:101E7000080C01E04FEAD37C0CEB4C0526FA05F682
:101E800006F00706B6F1040C06D20EEB860CBDE890
:101E900070404CF0010C6047DFE80CF0090B0202C7
:101EA0004FF000414FF00000A1F5002170BD194630
:101EB0001046012851EB010418BFD4F5001484BF6B
:101EC000002001F0004170BD0808A0F500114FEAA4
:101ED000310170474FF04070E1EE100A7047FF216A
:101EE00041EAD050C005704700000000000000002B
:101EF0000102030406070809181F0008000000205B
:101F000018000000C4010008301F0008180000205D
:101F1000F0060000E00100080000000000000000E2
:101F20000100000010000000000000000024F40088
:040000050800018965
:00000001FF
