:020000040800F2
:10000000500A002029020008512E00088D27000800
:100010004D2E000821040008053E000800000000E5
:10002000000000000000000000000000F92F0008A0
:100030003D04000800000000F52F0008FD2F000817
:10004000430200084302000843020008430200087C
:10005000430200084302000843020008430200086C
:10006000430200084302000843020008430200085C
:10007000430200084302000843020008430200084C
:10008000430200084302000843020008430200083C
:10009000430200084302000843020008430200082C
:1000A000430200084302000843020008430200081C
:1000B00043020008C1300008CD30000843020008A8
:1000C00043020008430200084302000843020008FC
:1000D00043020008430200084302000843020008EC
:1000E00043020008430200084302000843020008DC
:1000F00043020008430200084302000843020008CC
:100100004302000843020008D930000843020008F7
:100110004302000843020008E530000843020008DB
:1001200043020008250400084302000843020008B7
:10013000430200084302000843020008430200088B
:10014000430200084302000843020008430200087B
:10015000430200083104000843020008F93D00088A
:10016000430200084302000843020008430200085B
:100170004302000843020008430200080000000098
:10018000430200084302000800F002F800F03CF8C7
:100190000AA090E8000C82448344AAF10107DA45E2
:1001A00001D100F031F8AFF2090EBAE80F0013F0F8
:1001B000010F18BFFB1A43F0010318472844000041
:1001C00048440000103A24BF78C878C1FAD85207D2
:1001D00024BF30C830C144BF04680C6070470000C1
:1001E0000023002400250026103A28BF78C1FBD840
:1001F000520728BF30C148BF0B6070471FB504F0DD
:10020000C7F91FBD10B510BD00F0D0F81146FFF7BB
:10021000F5FF03F04DFE00F0EEF803B4FFF7F2FF38
:1002200003BC00F0F5F80000094880470948004782
:10023000FEE7FEE7FEE7FEE7FEE7FEE7FEE7FEE796
:10024000FEE7FEE704480549054A064B70470000F3
:10025000AD3000088901000850040020500A002039
:10026000500600205006002053EA020C00F069807E
:100270002DE9F04B4FF00006002B1FBFB3FA83F5BA
:1002800003FA05F424FA05F65E4012BF1643B2FAEB
:1002900082F502FA05F4C5F120051EBF22FA05FC1D
:1002A00044EA0C04203556EA044C4FEA144418BFC3
:1002B000641C4FF000084FF00009904271EB030CF2
:1002C00039D3002919BFB1FA81F701FA07F6B0FA5C
:1002D00080F700FA07F6C7F120071EBF20FA07FCD7
:1002E00046EA0C062037B6FBF4FCA7EB0507103FE7
:1002F00007F01F0BCBF120062CFA06F60CFA0BFBCD
:1003000044BFB3460026202FA4BF5E464FF0000B2B
:100310005BEA060C08BF4FF0010B19EB0B0948EB29
:100320000608ABFB027C06FB02CC0BFB03CCC01B1C
:1003300071EB0C01C1E70B46024641464846BDE859
:10034000F08B13B5084318BF4FF0FF300146AFF3F1
:100350000080BDE81C4070474FF0000200B5134616
:1003600094469646203922BFA0E80C50A0E80C50D5
:10037000B1F12001BFF4F7AF090728BFA0E80C5086
:1003800048BF0CC05DF804EB890028BF40F8042B7F
:1003900008BF704748BF20F8022B11F0804F18BFEC
:1003A00000F8012B7047704770477047754600F0A2
:1003B0002BF8AE4605006946534620F007008546F7
:1003C00018B020B5FFF73EFFBDE820404FF0000613
:1003D0004FF000074FF000084FF0000BAC46ACE8C0
:1003E000C009ACE8C009ACE8C009ACE8C00921F01C
:1003F00007018D46704710B50446AFF300802046D4
:10040000BDE81040FFF709BF00487047100000200A
:1004100001491820ABBEFEE726000200704700002D
:10042000FEE7000040F2BC00C2F2000000F068B835
:1004300040F21C10C2F2000000F062B870470000E9
:10044000EFF3108072B600BFFEE7000070B5866D56
:10045000044600F0DBFA94F83510022928D105464D
:100460002068216C026822F016020260426922F0C4
:100470008002426109B9A16C19B1016821F008013B
:100480000160016821F00101016000BF206800687F
:10049000C00715D000F0BAFA401B0628F6D320207A
:1004A0006065032084F83500002184F8341070BDA5
:1004B000802060650120002184F8341070BD00BFE9
:1004C000E06D3F2101FA00F0B060012084F83500B2
:1004D0000020002184F8341070BD000090F8351021
:1004E000022909D1052180F835100068016821F042
:1004F00001010160002070478021416501207047A3
:10050000F0B581B004460020009040F20800C2F22D
:1005100000000268D4E9166048F2B5133768082174
:10052000C1F64E3381403942A2FB03250CD022682C
:1005300013685B0708D5136823F004031360B160E8
:10054000616D41F00101616501218140394208D0AE
:1005500022685269120604D5B160616D41F0020152
:10056000616504218140394208D0226812689207EF
:1005700004D5B160616D41F00401616510218140D5
:10058000394217D020680268120713D5B16002689B
:100590000168520308D4C90508D4016821F0080194
:1005A0000160216C21B905E008033FD4216C09B139
:1005B00020468847E16D202000FA01F23A4241D0FE
:1005C00020680368DB063DD5B26094F835300268D8
:1005D000052B1BD122F016020260426922F0800234
:1005E0004261226C0AB9A26C1AB1026822F00802B8
:1005F00002603F208840B060012084F83500216D02
:100600000020002984F8340052D157E001685203D9
:1006100010D4C90512D4016821F010010160012035
:1006200084F83500002084F8340007E0A16C00292C
:10063000BED1BFE7080301D4616C00E0E16B09B1F2
:1006400020468847606DC8B3606DC0072ED0052076
:1006500084F835002068A90A026822F001020260CD
:10066000009A01328A4200921AD80268D20717D043
:10067000009A01328A42009212D80268D2070FD043
:10068000009A01328A4200920AD80268D20707D043
:10069000009A01328A42009202D80268D207DFD162
:1006A000012084F83500002084F83400E16C29B181
:1006B000204601B0BDE8F040084700BF01B0F0BDE2
:1006C0002DE9F041044600F0A1F9ECB10546022005
:1006D00084F835000020216884F83400086820F090
:1006E0000100086021680868C00711D000F08EF989
:1006F000401B0528F6D9032520230320636584F8D1
:100700003550BDE8F08100BF0120BDE8F08100BF99
:10071000086848F23F02CFF21002D4E9013500EA3E
:10072000020C04F10C0898E8C10143EA0C032B43C6
:100730001843D4E9072E304338431043626A40EA35
:100740000E00042A40EA08031CD1206BD4E90A2ECB
:1007500040EA0E00184308604869BEF1000F20F01F
:10076000030040EA020040F0040C11D0B8F5005F2D
:1007700036D0B8F1000F45D1022A46D0012A3BD02D
:1007800032B942E00B60486920F0070040EA020CF1
:1007900001F0F8004AF6AB221038CAF6AA22A0FBF4
:1007A00002231A0944F2C253C0F600039A5C40F2D5
:1007B000FF335F284FF03F00C1F814C021EA030166
:1007C00000FA02F088BF0431C4E9161288600023E1
:1007D00001250020636584F83550BDE8F08100BF35
:1007E000032AD5D8012540230120DFE802F0030EBB
:1007F000030500BF82E700BFAEF1C070B0FA80F021
:10080000400904E0032A04D3C2D1CEF300600028DB
:10081000BED0012540230120636584F83550BDE832
:10082000F0810000B0B5044600F0F0F8054640F253
:100830000000C2F200000078611C18BF044400BF31
:1008400000F0E4F8401BA042FAD3B0BD2DE9F04F10
:1008500082B000F13E4241F6004502F1FF77C4F25A
:100860000205082243F6004E4FEAB726A84208BF09
:100870000722C4F2010E072E38BF4FEAB722012526
:10088000002600274FF00008009208E008F1010858
:100890000437B8F1100F06F1020600F0A7800C68CB
:1008A00005FA08F914EA090FF0D0D1F804B00322D0
:1008B0000BF0030CACF10104B240012C6FEA020A08
:1008C00010D88268CC6802EA0A02B44022438260EF
:1008D0004268CBF3001422EA090204FA08F4224326
:1008E000426005E0BCF1030F02D14FF0030C20E0A1
:1008F000C2688C6802EA0A02B4402243BCF1020FCB
:10090000C26016D16FF0030202EA58020244D2F824
:1009100020C007F01C050F230C69AB402CEA030331
:1009200004FA05F52B431362D1F804B001250BF04E
:10093000030C02680CFA06F302EA0A021A431BF4DB
:10094000403F0260A2D0002243F644030192C4F269
:1009500002031A684FF6084C42F480421A601A6883
:10096000CFF6FF7C02F480420192019A28F0030244
:10097000724452F80C3007F00C050F24AC40A3432E
:10098000009C04FA05F52B4342F80C30DEF80820F1
:100990004B6842EA090543F60C4CDC0258BF22EAD8
:1009A0000905CEF80850C4F2010CDCF800209C02C6
:1009B00042EA090558BF22EA0905CCF80050DEF8E2
:1009C00004209C0342EA090558BF22EA0905CEF833
:1009D0000450DEF80020DB0342EA090558BF22EA92
:1009E0000905CEF80050012550E700BF02B0BDE870
:1009F000F08F00000069084018BF01207047000018
:100A0000002A08BF090481617047000040F2484095
:100A1000C2F200000068704740F2000040F2484116
:100A2000C2F20000C2F2000100780A6810440860B7
:100A30007047000080B543F60040C4F20200016830
:100A400041F400710160016841F480610160016856
:100A500041F480710160032000F088F80F2000F05D
:100A600005F800F027F8002080BD000070B540F2C6
:100A70000006C2F2000640F208013278C2F200011C
:100A80004FF47A730968B3FBF2F20446B1FBF2F15A
:100A9000084600F043FB0F2C4FF0010508D838B989
:100AA0004FF0FF3021460022002500F033F874603B
:100AB000284670BD82B0002043F640010190C4F288
:100AC00002014A6842F480424A604A6802F4804265
:100AD0000192019A0090086840F080500860086810
:100AE00000F080500090009802B07047002848BF86
:100AF0007047C1B200F01F00012202FA00F04EF26E
:100B00000012CEF2000242EAD10121F00301086096
:100B10007047000010B54EF60C5CCEF2000CDCF80D
:100B20000030C3F3022E8EF00704042C28BF0424E7
:100B3000BEF103034FF0FF3E0EFA04F438BF00236A
:100B4000A14399400EFA03F39A43114300F00F02B8
:100B500000F160430901043A03F56443624400284C
:100B600048BF02F10C03197010BD00004EF60C5185
:100B7000CEF200010A684FF6FF031A4060F30A2222
:100B800042F0806040F0FD70086070472DE9F04150
:100B9000002800F08B8043F60808C4F202080446DF
:100BA000D8F8F8030D4600F00700884207D288F80D
:100BB000F853D8F8F80300F00700A84276D120686F
:100BC000810717D5410705D5D8F8001041F4E05149
:100BD000C8F80010010705D5D8F8001041F46041AD
:100BE000C8F80010D8F80010A26821F0F0011143F5
:100BF000C8F80010C0073FD1D8F8F80300F007008C
:100C0000A84207D988F8F853D8F8F80300F007008D
:100C1000A8424BD12068410707D5D8F80010E268F8
:100C200021F4E0511143C8F80010000708D5D8F8A6
:100C30000000216920F4604040EAC100C8F80000CB
:100C400000F07CF8D8F8001044F2AA52C1F3031166
:100C5000C0F60002515C40F2080220FA01F140F2B5
:100C60000400C2F200000068C2F200021160FFF747
:100C7000FDFE0020BDE8F0816068811E022907D2D8
:100C800058F8081C89015CBF0120BDE8F08111E023
:100C9000012807D158F8081C89035CBF0120BDE872
:100CA000F08107E058F8081C890703D40120BDE84B
:100CB000F08100BFD8F8001021F003010843C8F804
:100CC0000000FFF7A3FE064641F28837D8F800007F
:100CD000616800F00C00B0EB810F8DD0FFF796FE3D
:100CE000801BB842F2D90320BDE8F08140F2080031
:100CF00043F60801C2F20000C4F20201006809686C
:100D000044F2BA52C1F38221C0F60002515CC840DD
:100D10007047000040F2080043F60801C2F20000EC
:100D2000C4F202010068096844F2BA52C1F34231C8
:100D3000C0F60002515CC8407047000010B543F691
:100D40000404C4F20204606800F00C0142F20040A6
:100D50000829C0F2F40007D0042918BF10BD41F2E1
:100D60000020C0F27A0010BD216801F03F02216826
:100D700023684902C3F3881106D4A1FB00010023B4
:100D8000FFF772FA07E000BF41F20020C0F27A00DC
:100D90004843B0FBF2F021680222C1F3014102EBAB
:100DA0004101B0FBF1F010BD2DE9F04182B0002807
:100DB00068D00446007843F60006C007C4F2020675
:100DC0000BD0B06800F00C00042840F09F80306821
:100DD000800302D56068002854D0207880071AD597
:100DE000B06810F00C0F09D0B06800F00C000828B3
:100DF00040F0A6807068400200F1A2803068800751
:100E000002D5E06801283DD13068216920F0F80062
:100E100040EAC10030602078000737D420784007CE
:100E20004CD4A56955B3B06800F00C00082840F018
:100E3000BB80012D26D07068E16900F480028A42EF
:100E400020D1216A00F03F028A421BD147F6C071CF
:100E5000626A0140B1EB821F14D1A16A4FF6FF73A1
:100E6000C903994300F44032A1F580318A4209D187
:100E7000E16A00F07060B0EB016F03D1002002B0B6
:100E8000BDE8F081012002B0BDE8F0816069002872
:100E900040F20000C4F2472076D00121C0F8801E45
:100EA000FFF7B4FD054600BF706F8007B6D4FFF7AB
:100EB000ADFD401B0228F7D9DDE000BF306C10F01B
:100EC00080580AD100200190306C40F0805030648E
:100ED000306C00F080500190019847F20007C4F296
:100EE00000073868C00541D4386840F48070386025
:100EF000FFF78CFD054600BF3868C00536D4FFF704
:100F000085FD401B0228F7D9B5E000BFB06800F0AE
:100F10000C00082803D1706840023FF558AF6068A4
:100F2000B0F5803F07D0B0F5A02F40F08D8030683D
:100F300040F480203060306840F4803030608DE0D4
:100F4000E068002852D00020C4F24720012101604F
:100F5000FFF75CFD054600BF306880073FF554AFE2
:100F6000FFF754FD401B0228F6D984E0A068012851
:100F700005D005284ED1306F40F004003067306F47
:100F800040F0010030674FE00021C0F8801EFFF7FD
:100F90003DFD0546706F80077FF540AFFFF736FDDA
:100FA000401B0228F6D966E00027C4F2472700203C
:100FB0003866FFF72BFD022D05460BD13068800106
:100FC0005ED5FFF723FD401B02284FF00300F5D943
:100FD00055E700BF306880017FF550AFFFF716FD81
:100FE000401B02284FF00300F4D948E70020C4F268
:100FF000472000210160FFF709FD054630688007A2
:101000007FF509AFFFF702FD401B02284FF00300F8
:10101000F4D934E7316F002821F001013167316FD5
:1010200021F0040131674DD0FFF7F0FC054641F295
:10103000883700BF306F800756D4FFF7E7FC401BAE
:10104000B842F7D917E000BF3168002821F4803199
:101050003160316821F4802131604FD0FFF7D6FC38
:10106000054600BF306880033FF5B7AEFFF7CEFC02
:10107000401B6428F6D9032002B0BDE8F08100BF10
:1010800004F11C052FCD084340EA8210D9034FF626
:10109000FF729143A1F5803140EA0560084370601A
:1010A00001203866FFF7B2FC044600BF30688001BB
:1010B0003FF5E4AEFFF7AAFC001B02284FF0030047
:1010C000F4D9DCE6FFF7A2FC054641F2883700BF01
:1010D000306F800708D5FFF799FC401BB8424FF0EE
:1010E0000300F5D9CBE600BFB8F1000F7FF499AE4D
:1010F000306C20F08050306493E600BFFFF786FC30
:10110000054600BF306880037FF567AEFFF77EFCC1
:10111000401B64284FF00300F4D9B0E6411E0020C4
:10112000B0EB116F1CBF012070474EF21002CEF2DF
:10113000000251604EF62351CEF20001F0230B70F5
:1011400007219060116070477047000070470000F1
:1011500010B590F83C20012A4FF0020251D080F8DF
:101160003D200268D2F804E0D2F808C00C682EF0E6
:101170007003234341F2FF74C4F20004A24253609F
:101180000EDC40F2FF73C4F200039A4216DCB2F1A7
:10119000804F2BD040F20043C4F2000324E000BF94
:1011A00040F2FF33C4F201039A4213DC41F600031C
:1011B000C4F200039A4219D0002313E040F6000362
:1011C000C4F200039A4211D040F60043C4F2000377
:1011D0000AE000BF44F20003C4F201039A4205D0C2
:1011E00040F20043C4F201039A4204D149682CF052
:1011F0008003194391600121002280F83D1080F89E
:101200003C20104610BD0000002804BF012070479C
:1012100010B5044690F83D0028B9002084F83C0041
:10122000204600F01FF8022084F83D002068211DB0
:1012300001F05EFF012084F8460084F83E0084F847
:101240003F0084F8400084F8410084F8420084F8AC
:10125000430084F8440084F8450084F83D000020F1
:1012600010BD000080B582B0006800F140404FEA38
:10127000B020042813D8DFE800F00312152F49002E
:101280000020019043F64000C4F20200016841F0E2
:1012900001010160006800F001000190019802B0B6
:1012A00080BD00BF0020019043F64000C4F2020060
:1012B0000168002241F0040101600068002100F093
:1012C0000400019001981E20FFF724FC1E2002B0AC
:1012D000BDE88040FFF70ABC0020019043F64000C3
:1012E000C4F202000168002241F0080101600068B8
:1012F000002100F00800019001983220FFF70AFC5D
:10130000322002B0BDE88040FFF7F0BB0020019022
:1013100043F64000C4F202000168002241F01001CF
:1013200001600068012100F0100001900198362052
:10133000FFF7F0FB362002B0BDE88040FFF7D6BBD8
:1013400090F83D1001291CBF01207047022180F850
:101350003D10006841F2FF72C168C4F20002904281
:1013600041F00101C1600DDC40F2FF71C4F20001E7
:10137000884215DCB0F1804F2AD040F20041C4F21F
:10138000000123E040F2FF31C4F20101884213DC86
:1013900041F60001C4F20001884219D0002113E097
:1013A00040F60001C4F20001884211D040F600412D
:1013B000C4F200010AE000BF44F20001C4F20101DE
:1013C000884205D040F20041C4F20101884206D1B2
:1013D000816801F00701062904BF002070470168F9
:1013E00041F00101016000207047000080B590F8D5
:1013F0003C20012A4FF0020200F0C28080F83D201C
:10140000D0F800C04FF67772DCF8083023EA020209
:10141000CCF808200B684F2B28DC1F2B44DD202B39
:1014200045D0302B43D0402B40F0AC80D1F804E0C5
:10143000C968DCF82030DCF8202022F00102CCF86A
:101440002020DCF8182022F0F00242EA011123F0FB
:101450000A0242EA0E02CCF81810CCF82020DCF880
:10146000081041F0470121F0300180E06F2B27DDAB
:10147000B3F5005F48D0B3F5805F7AD0702B40F0B1
:101480008180D1E901E3C968DCF8082043EA0E0352
:1014900022F47F4243EA01211143CCF80810DCF822
:1014A000081041F0770162E00BB1102B6AD1DCF833
:1014B000081021F07001194341F0070157E000BF07
:1014C000502B35D0602B5DD1D1F804E0C968DCF831
:1014D000203023F01003CCF82030DCF81830DCF892
:1014E000202023F4704322F0A00243EA013142EAB3
:1014F0000E12CCF81810CCF82020DCF8081041F0BF
:10150000670121F0100132E0D1E901E3C968DCF89C
:10151000082043EA0E0322F47F4243EA01211143EB
:10152000CCF80810DCF8081041F480411FE000BF3F
:10153000D1F804E0C968DCF82030DCF8202022F083
:101540000102CCF82020DCF8182022F0F00242EA58
:10155000011123F00A0242EA0E02CCF81810CCF86E
:101560002020DCF8081041F0570121F02001CCF8D0
:1015700008100022012180F83D10002180F83C1065
:10158000104680BD0122F5E7002804BF0120704706
:101590002DE9F047044690F83D000D4628B900209B
:1015A00084F83C00204600F049F8022084F83D0011
:1015B000206844F20702816891438160211D01F097
:1015C00097FD20684FF6FF7881688269D0F820C0C7
:1015D000D5E9003ED5E9026A43EA0109AB6922EA8E
:1015E000080246EA03234FF6FC46B343D5E90767F2
:1015F00042EA0A0229691A4342EA062242EA011132
:101600002CF0AA026B6942EA0E0241EA073142EA73
:101610000312C0F8089081610262012084F846003C
:1016200084F83E0084F83F0084F8420084F84300C8
:1016300084F83D000020BDE8F087000080B586B04A
:10164000006840F20042C4F2000200219042CDE95D
:101650000411CDE90211019130D00021C4F2010141
:10166000884258D1002043F630010090C4F20201B4
:101670004A6942F001024A614A6902F0010200929D
:10168000009A00900A6842F010020A60096801F0AE
:101690001001009100994FF4206101910221CDE9E0
:1016A00002100490012005900020C4F2020000F511
:1016B000805001A9FFF7CAF806B080BD43F630009C
:1016C0000091C4F20200026942F002020261026962
:1016D00002F002020092009A0091026842F00102B8
:1016E0000260006800F0010000900098C0200190A6
:1016F0000220CDE90201CDE904100020C4F202006D
:1017000001A9FFF7A3F81D2000210022FFF702FA2C
:101710001D20FFF7EBF906B080BD000080B590F802
:101720003E2090F83F3090F842E090F843C0042902
:101730000AD0B9B9012A4FF0010208BFBEF1010F6A
:1017400034D0104680BD00BF012B4FF0010208BF0E
:10175000BCF1010FF5D1022180F83F1080F8431051
:1017600000681EE0012A4FF0010208BF012BE8D1FA
:10177000BEF1010FE5D1BCF1010FE2D1022280F8E8
:101780003E2080F83F2080F8422080F8432091B12D
:101790000068016A21F001010162016A41F0010162
:1017A000016210216FF0100209E000BF022180F8F1
:1017B0003E1080F84210006801216FF00102036AB8
:1017C0001A400262026A114301620168002241F07C
:1017D00001010160104680BD7047000010B501682E
:1017E00004460869800744BFC8685FEA807039D43E
:1017F0000869400744BFC8685FEA40703ED4086982
:10180000000744BFC8685FEA007045D40869C00695
:1018100044BFC8685FEAC0604AD40869C0071CBFFB
:10182000C8685FEAC07051D10869000644BFC86843
:101830005FEA006052D40869400644BFC8685FEAA6
:10184000406053D40869800646BFC8685FEA80607C
:1018500010BD6FF0200220460A61BDE81040FFF77E
:1018600075BC00BF6FF00200086101202077886915
:10187000800743D02046FFF7AFFF45E06FF004003C
:10188000086102202077886910F4407F40D020460C
:10189000FFF7A2FF42E000BF6FF0080008610420DC
:1018A0002077C86980073DD02046FFF795FF3FE0CD
:1018B0006FF01000086108202077C86910F4407F9D
:1018C0003AD02046FFF788FF3CE000BF6FF00100F0
:1018D0000861204600F0EEFB2168A5E76FF080006C
:1018E00008612046FFF730FC2168A4E76FF0400054
:1018F0000861204600F0E0FB2168A3E7204600F0E5
:10190000BFF9204600F04AFB2168002020776FE7EE
:10191000204600F0B5F9204600F040FB2168002089
:1019200020776CE7204600F0ABF9204600F036FB4C
:1019300021680020207769E7204600F0A1F92046C1
:1019400000F02CFB21680020207766E72DE9F041AC
:1019500086B0006840F6FF31C4F2000188424FF0C3
:1019600000010591CDE90311CDE9011126DCB0F1AB
:10197000804F4DD040F60001C4F20001884240F093
:10198000A180002043F630010090C4F202010A68F1
:1019900042F008020A60096801F00801009100990C
:1019A0004FF4704101910221CDE90210CDE904010B
:1019B0000020C4F2020000F5406080E040F60041E3
:1019C000C4F20001884261D044F20001C4F2010176
:1019D000884277D1002043F630010090C4F2020122
:1019E0000A6842F010020A60096801F010010091D3
:1019F0000099602101910221CDE902100490032099
:101A000005900020C4F2020000F5805057E000BFAE
:101A1000002643F630000096C4F20200016800245C
:101A200041F0010101600168C4F2020401F001010A
:101A300000910099009601680DF1040841F002013F
:101A400001600068022700F0020000900098012564
:101A500020464146CDE90177CDE903670595FEF7BC
:101A6000F5FE2420CDE9010720464146CDE9036675
:101A70000595FEF7EBFE4FF40060CDE90107CDE9D7
:101A80000366059504F5806019E000BF002043F669
:101A900030010090C4F202010A6842F001020A60BB
:101AA000096801F0010100910099012101910221D1
:101AB000CDE902100020C4F20200CDE9041101A911
:101AC000FEF7C4FE06B0BDE8F0810000F0B590F866
:101AD0003C30012B04BF0220F0BD4FEAB202032AC2
:101AE00000F2C880DFE802F00234689A026840F22F
:101AF0000046136A42F4806423F001031362136A00
:101B0000D2F804E0D2F818C08D6823F00203C4F2C2
:101B10000106B44243EA050305D1CD6823F00C0366
:101B200025F004052B430D68B44207D1D1E90546E1
:101B30002EF4407E44EA0E0444EA060E2CF07306AE
:101B40002E43C2F804E09661496851638BE000BF00
:101B5000026840F20045136A42F4806423F01003E7
:101B60001362136AD2F804E0D2F818C08E6823F02A
:101B70002003C4F20105AC4243EA061307D1CE6844
:101B80006FF0400723F0C00307EA061633430E68E0
:101B9000AC4206D1D1E905452EF44067254347EA1A
:101BA000850E2CF4E64747EA0627C2F804E0976161
:101BB0004968916357E000BF026840F20045136A2C
:101BC00042F4806423F480731362136AD2F804E051
:101BD000D2F81CC08E6823F40073C4F20105AC4235
:101BE00043EA062307D1CE6840F2FF47360223F4CA
:101BF0004063BE4333430E68AC4206D1D1E905458C
:101C00002EF44057254347EA051E2CF0730737434F
:101C1000C2F804E0D7614968D16324E0026840F269
:101C20000047136A42F4806623F480531362D2F8AB
:101C300020E05368D4690D68D1F808C0C4F20107E8
:101C4000BE4204D14E6923F4804343EA861324F450
:101C5000E64646EA05265360D6612EF400574968E9
:101C600047EA0C33116400211362002280F83C2003
:101C70000846F0BD0121002280F83C200846F0BD56
:101C800070470000002804BF0120704710B50446CB
:101C900090F83D0028B9002084F83C00204600F070
:101CA0001FF8022084F83D002068211D01F020FA71
:101CB000012084F8460084F83E0084F83F0084F850
:101CC000400084F8410084F8420084F8430084F81E
:101CD000440084F8450084F83D00002010BD000059
:101CE000704700002DE9F04390F83C30012B04BF11
:101CF0000220BDE8F0834FEAB202032A00F2FC8022
:101D0000DFE802F0023E7EBE036840F200471A6A36
:101D100043F4806522F001021A621C6A1A46D3F865
:101D200004E052F818CF8E6824F00204C4F20107D0
:101D3000BD4244EA060405D1CE6824F00C0426F026
:101D4000040634430E68BD4207D1D1E905572EF48D
:101D5000407E45EA0E0545EA070E2CF0730737432F
:101D6000C3F804E09F614F6809695F631C629F6963
:101D700047F008079F619F6927F004079F61B1E062
:101D8000036840F200481A6A43F4806522F01002AA
:101D90001A621C6A1A46D3F804C052F818EF8F680A
:101DA00024F02004C4F20108454544EA071407D191
:101DB000CF686FF0400624F0C00406EA07163443EB
:101DC000D1F80090454506D1D1E905562CF440677D
:101DD0002E4347EA860C2EF4E64747EA0927C3F864
:101DE00004C09F614F6809699F631C629F6947F443
:101DF00000679F619F6927F480679F6171E000BF62
:101E0000036840F200481A6A43F4806522F4807245
:101E10001A621C6A1A46D3F804C052F81CEF8F6885
:101E200024F40074C4F20108454544EA072408D1AB
:101E3000CF6840F2FF463F0224F4406427EA0606DA
:101E40003443D1F80090454506D1D1E905562CF42C
:101E500040572E4347EA061C2EF0730747EA09074E
:101E6000C3F804C0DF614F680969DF631C62DF6982
:101E700047F00807DF61DF6927F00407DF6131E021
:101E8000036840F200451A6A43F4806722F48052E6
:101E90001A621A46D3F820C05C6852F81CEFD1F8D9
:101EA00000808E68C4F20105AF4204D14D6924F46C
:101EB000804444EA85142CF4005747EA06372EF490
:101EC000E64646EA08265C60DE614E6809691E64E3
:101ED0001F62DF6947F40067DF61DF6927F480670D
:101EE000DF6109021368194311600021002280F8A4
:101EF0003C200846BDE8F0830121002280F83C2008
:101F00000846BDE8F0830000002804BF01207047A8
:101F100010B5044690F83D0028B9002084F83C0034
:101F2000204600F01FF8022084F83D002068211DA3
:101F300001F0DEF8012084F8460084F83E0084F8C1
:101F40003F0084F8400084F8410084F8420084F89F
:101F5000430084F8440084F8450084F83D000020E4
:101F600010BD000081B0006844F20001C4F201011C
:101F7000884201D001B070470020009043F6440031
:101F8000C4F20200016841F480310160006800F48D
:101F900080300090009801B070470000704700004A
:101FA00041B1082910D0042914BF00F1410200F109
:101FB0003F020BE090F83E20012A1CBF0120704731
:101FC000022280F83E2013E000F140021278012A3C
:101FD0001CBF012070470222082907D0042914BF22
:101FE00080F8412080F83F2002E000BF80F84020C8
:101FF000006801F01F010122036A02FA01F123EADD
:1020000001020262026A114341F2FF72C4F200024D
:10201000904201620CDC40F2FF71C4F20001884280
:1020200014DCB0F1804F37D040F2004116E000BF21
:1020300040F2FF31C4F20101884215DC41F6000193
:10204000C4F20001884227D0002115E040F60001CB
:10205000C4F2000188421FD040F60041C4F20001E2
:10206000884219D01FE000BF44F20001C4F2010110
:10207000884211D040F20041C4F20101884212D1DD
:10208000416C40F2004340F48062C4F2010341F429
:1020900000419A42416406D1816801F00701062996
:1020A00004BF00207047016841F001010160002079
:1020B0007047000070470000704700007047000044
:1020C00070470000B0B582B0044600680168C3687C
:1020D000426901F02F05202D03F0200506D12DB116
:1020E000204602B0BDE8B04001F08EBD5FEA017C41
:1020F0001EBF02F0010E03F4907212EB0E0253D1D8
:10210000226B012A05D111F0100218BF13F0100242
:1021100036D10A0622D513F080021FD094F83D1064
:1021200021293FD1A168B1F5805F03D12169002940
:1021300000F07282216A4A1C226209784160E18CB7
:1021400001390A04E1842DD1C16821F08001C16008
:10215000C16841F04001C16002B0B0BD490621D55F
:1021600013F040011ED0C16821F04001C160202160
:10217000204684F83D1002B0BDE8B04000F004BB3A
:102180000021019101680191416801910199406923
:10219000400613D4A08DE18DE28D002A18BF88423D
:1021A00040F0BE8102B0B0BDCA0718BF13F4807200
:1021B00040F0BA804A0700F1BD80C2E0A16B086818
:1021C000426893B2002BEDD0A08D8342EAD2E28523
:1021D000C969B1F5807F00F09D80206850E8030F49
:1021E000216820F4807041E80302DAB1206850E8E9
:1021F000030F216820F4807041E8030292B1206847
:1022000050E8030F216820F4807041E803024AB1CE
:10221000206850E8030F216820F4807041E8030231
:10222000002ADAD1206850E8050F216820F001006B
:1022300041E80502DAB1206850E8050F216820F076
:10224000010041E8050292B1206850E8050F2168BD
:1022500020F0010041E805024AB1206850E8050F6E
:10226000216820F0010041E80502002ADAD1206847
:1022700050E8050F216820F0400041E80502DAB17E
:10228000206850E8050F216820F0400041E8050271
:1022900092B1206850E8050F216820F0400041E825
:1022A00005024AB1206850E8050F216820F040007F
:1022B00041E80502002ADAD1202084F83E000020FF
:1022C0002063206850E8030F216820F0100041E8E7
:1022D0000302DAB1206850E8030F216820F01000F3
:1022E00041E8030292B1206850E8030F216820F012
:1022F000100041E803024AB1206850E8030F21684A
:1023000020F0100041E80302002ADAD1A06BFEF7AA
:102310009DF8A08DE18D401A81B2204602B0BDE843
:10232000B040FFF7CBBE00BF226C42F00102226436
:102330004A0706D5BEF1000F03D0226C42F002021C
:1023400022648A0706D5BEF1000F03D0226C42F04A
:1023500004022264BCF1000F09D545EA0E02B2FA6C
:1023600082F2520903D1226C42F008022264226CEC
:10237000002A3FF417AF11F0200118BF002D03D041
:10238000204601F041FC20684069216C00F04000CB
:1023900001F00801401800F0B58000BF206850E847
:1023A000030F216820F4907041E80302BAB320685B
:1023B00050E8030F216820F4907041E8030272B3E3
:1023C000206850E8030F216820F4907041E8030270
:1023D0002AB3206850E8030F216820F4907041E888
:1023E0000302002ADAD11AE0206850E8050F2168BC
:1023F00020F0010041E80502DAB1206850E8050F3D
:10240000216820F0010041E8050292B1206850E8FF
:10241000050F216820F0010041E805024AB120685B
:1024200050E8050F216820F0010041E80502002A6C
:10243000DAD1206B012824D1206850E8030F2168ED
:1024400020F0100041E80302DAB1206850E8030FE1
:10245000216820F0100041E8030292B1206850E8A2
:10246000030F216820F0100041E803024AB1206800
:1024700050E8030F216820F0100041E80302002A11
:10248000DAD1202084F83E000020206320684069D3
:1024900040063FD5206850E8050F216820F0400035
:1024A00041E80502DAB1206850E8050F216820F004
:1024B000400041E8050292B1206850E8050F21680C
:1024C00020F0400041E805024AB1206850E8050FBD
:1024D000216820F0400041E80502002ADAD1A06B13
:1024E000C0B143F6FD31C0F600010165FDF7F6FF0E
:1024F00000283FF457AEA06B016D02B0BDE8B040BC
:10250000084700BF2046FFF7DBFD0020206402B033
:10251000B0BD00BF204602B0BDE8B040FFF7D0BD5F
:10252000401A216851E8031F226821F4907142E8A3
:102530000313DBB1216851E8031F226821F4907175
:1025400042E8031393B1216851E8031F226821F484
:10255000907142E803134BB1216851E8031F2268D0
:1025600021F4907142E80313002BDAD1216851E87D
:10257000051F226821F0010142E80513DBB1216843
:1025800051E8051F226821F0010142E8051393B1CB
:10259000216851E8051F226821F0010142E8051376
:1025A0004BB1216851E8051F226821F0010142E882
:1025B0000513002BDAD1202184F83E10002121637D
:1025C000216851E8031F226821F0100142E803133B
:1025D000002B3FF4A1AE216851E8031F226821F0CF
:1025E000100142E80313002B3FF496AE216851E836
:1025F000031F226821F0100142E80313002B3FF46F
:102600008BAE216851E8031F226821F0100142E8D7
:102610000313002BD4D17FE6216A31F8022B6FF32C
:102620005F22426021628AE5002804BF01207047D2
:1026300010B5044690F83D0028B9002084F83C000D
:10264000204600F021F8242084F83D002068C1686D
:1026500021F40051C160204601F056FB2068016959
:1026600021F490410161416921F02A014161C16871
:1026700041F40051C16000202021206484F83D1005
:1026800084F83E1010BD00002DE9F04786B00446E6
:10269000016841F20040C4F20100814202D006B05C
:1026A000BDE8F087002643F630010196C4F202012E
:1026B0004A6946F2284842F020024A614A6900F518
:1026C000744002F020020192019A01960A68C4F255
:1026D000020842F004020A60096801F00401019155
:1026E0000199C02101910221CDE902160321049133
:1026F0000821059101A9FEF7A9F840F2BC05C2F234
:1027000000054FF480704FF0206A4FF48069C5E9EE
:1027100006604FF480372846C5E9008AC5E902669D
:10272000C5E90496C5E90876FDF7CAFF002818BF79
:10273000FDF786FEA563AC6340F21C1508F1780036
:10274000C2F200054021C5E9000A05F1080080E851
:1027500042022846C5E90566C5E907676E62FDF7CE
:10276000AFFF002818BFFDF76BFE472002210022B3
:102770006563AC63FEF7CEF94720FEF7B7F906B004
:10278000BDE8F0877047000070470000FEE70000DA
:1027900080B582B00020019043F63000C4F2020000
:1027A0000168002241F4800101600068002100F40A
:1027B0008000019001983920FEF7ACF93920FEF72E
:1027C00095F9452000210022FEF7A4F9452002B02A
:1027D000BDE88040FEF78AB92DE9F04F87B00025AB
:1027E00043F63000CDE905550195C4F202000168B9
:1027F00040F2004A41F0100101600168C4F2020A8F
:1028000001F010010191019901950168AAF5806418
:1028100041F0800101600168002201F08001019116
:10282000019901950168182641F0010101600168D4
:1028300001F00101019101990195016841F0040144
:102840000160016801F0040101910199019501689D
:1028500041F002010160016801F00201019101995A
:102860000195016841F0080101600068182100F03D
:102870000800019001982046FEF7C2F80AF580682A
:10288000404630210022FEF7BBF8504647F2870150
:102890000022FEF7B5F80AF5006948460421002237
:1028A000FEF7AEF8102002904FF4041002AF039030
:1028B0004FF0010B0AF540603946CDF810B0FDF736
:1028C000C5FFCDE9026B022620463946CDF810B08F
:1028D0000596FDF7BBFF3020CDE9020B4046394697
:1028E000CDE90466FDF7B2FF0720CDE9020B5046A3
:1028F0003946CDE90466FDF7A9FF4FF4E140CDE983
:10290000020B50463946CDE90455FDF79FFF48F2CA
:102910002800CDE90205504639460495FDF796FF9B
:1029200040F2BA70CDE90205484639460495FDF7F4
:102930008DFF4FF4E050CDE902054046394604953D
:10294000FDF784FF0420CDE9020B48463946CDE966
:102950000455FDF77BFF07B0BDE8F08F10B58CB0D4
:1029600040F27C1000210024C2F20000C4F20101F8
:10297000C0E900140321CDE90314012144F62062CB
:10298000CDE90514CDE9091403A9CDE90044C0E956
:102990000242C0E904448461CDE907440B94FEF788
:1029A000F3FD002818BFFDF74BFD40F27C10C2F28A
:1029B00000006946CDE90044FEF7CAFB002818BFB5
:1029C000FDF73EFD0CB010BD10B58EB040F2C41046
:1029D0000021C2F200004FF08042472344F61F64FA
:1029E0000D91CDE90B110991CDE90711CDE9051143
:1029F000CDE90311CDE90111C0E90023C0E90214BA
:102A000001618161FEF700FC002818BFFDF718FD89
:102A10004FF480500A9040F2C410C2F200000AA99C
:102A2000FEF7E4FC002818BFFDF70AFD40F2C410D1
:102A3000C2F20000FFF768FA002818BFFDF700FD9A
:102A400040F2C410C2F20000FFF71CF9002818BFC2
:102A5000FDF7F6FC40F2C4100024C2F2000008A901
:102A6000CDE90844FEF774FB002818BFFDF7E8FC29
:102A70006020CDE9010440F2C410C2F2000001A9B7
:102A8000002203940594FFF72DF9002818BFFDF7E5
:102A9000D7FC40F2C410C2F2000001A90422FFF7E3
:102AA00021F9002818BFFDF7CBFC40F2C410C2F298
:102AB000000001A90822FFF715F9002818BFFDF74B
:102AC000BFFC0020019040F2C410C2F2000001A936
:102AD0000C22FEF7FBFF002818BFFDF7B1FC40F207
:102AE000C410C2F20000FEF731FF0EB010BD0000AE
:102AF00080B58CB040F20C2040F200420021C2F2BE
:102B00000000C4F20002C0E90021032244F6206361
:102B1000CDE903210122CDE90011C0E902130161D1
:102B20008161CDE90521CDE90711CDE909210B919D
:102B300003A9FEF729FD002818BFFDF781FC40F22C
:102B40000C20C2F200006946FEF702FB002818BF05
:102B5000FDF776FC0CB080BD10B58EB040F254206D
:102B60000021C2F2000040F60002C7240D91CDE919
:102B70000B110991CDE90711CDE90511CDE903113B
:102B8000CDE90111C4F2000241F61F43C0E902146D
:102B900001618021C0E900238161FEF735FB002837
:102BA00018BFFDF74DFC4FF480500A9040F25420BE
:102BB000C2F200000AA9FEF719FC002818BFFDF7B1
:102BC0003FFC40F25420C2F20000FFF79DF90028BC
:102BD00018BFFDF735FC40F254200024C2F200007B
:102BE00008A9CDE90844FEF7B3FA002818BFFDF79D
:102BF00027FC6020CDE9010440F25420C2F200001D
:102C000001A9002203940594FFF76CF8002818BF6F
:102C1000FDF716FC40F25420C2F2000001A9042284
:102C2000FFF760F8002818BFFDF70AFC40F25420B7
:102C3000C2F2000001A90822FFF754F8002818BFCB
:102C4000FDF7FEFB40F25420C2F2000001A90C2265
:102C5000FFF748F8002818BFFDF7F2FB40F25420B8
:102C6000C2F20000FEF772FE0EB010BD10B58EB0BD
:102C700040F29C200021C2F2000040F60042C7242E
:102C80000D91CDE90B110991CDE90711CDE90511A0
:102C9000CDE90311CDE90111C4F2000241F61F4351
:102CA000C0E9021401618021C0E900238161FEF7BF
:102CB000ABFA002818BFFDF7C3FB4FF480500A9011
:102CC00040F29C20C2F200000AA9FEF78FFB002808
:102CD00018BFFDF7B5FB40F29C20C2F20000FFF7E1
:102CE00013F9002818BFFDF7ABFB40F29C2000242D
:102CF000C2F2000008A9CDE90844FEF729FA00282D
:102D000018BFFDF79DFB6020CDE9010440F29C2037
:102D1000C2F2000001A9002203940594FEF7E2FF2D
:102D2000002818BFFDF78CFB40F29C20C2F2000087
:102D3000FEF70CFE0EB010BD80B582B040F2E4206C
:102D400041F200020021C2F20000C4F2000240F28F
:102D5000CF2342F20F7CCDE90011C0E90023C0E986
:102D6000021C8161FEF750FA002818BFFDF768FBCE
:102D700040F2E420C2F200006946FEF7E9F90028BB
:102D800018BFFDF75DFB02B080BD000010B588B034
:102D900040F22C3044F200010024C2F20000C4F2E0
:102DA000010142F20F73CDE90644CDE90444472204
:102DB00080E81600C0E903348461FFF7A5F8002815
:102DC00018BFFDF73DFB6020CDE9010440F22C3037
:102DD000C2F2000001A9002203940594FEF782FFCD
:102DE000002818BFFDF72CFB40F22C30C2F2000087
:102DF00001A90422FEF776FF002818BFFDF720FB8B
:102E000040F22C30C2F20000FEF7A0FD08B010BD69
:102E100080B540F2743041F20041C2F20000C4F2C9
:102E2000010100234FF00C0C4FF4E13280E80E005A
:102E3000C0E90333C0E905C3C361FFF7F5FB002810
:102E400008BF80BDBDE88040FDF7FABAFEE700008C
:102E5000FEE70000002857D0017890ED0F1A90EDA2
:102E6000102A80ED070A30EEC00A0029C0ED060ADC
:102E700080ED0F0A80ED101A80ED112A48D001294B
:102E800040F0908090ED015A90ED026A30EE414A98
:102E900031EE011A90ED037A24EE054A20EE065A2F
:102EA00030EE410A32EE000AD0E90C1280ED0C0A35
:102EB00020EE070A34EE051A90ED082A90ED043A48
:102EC00080ED0B0A31EE000A32EE000AB4EE430A3E
:102ED000F1EE10FA80ED094A80ED0A5AC0E90D12B0
:102EE00080ED080AC2BF80ED083AB0EE430A704791
:102EF000B1EE431AB4EE410AF1EE10FABCBF80ED18
:102F0000081AB0EE410A70479FED280A704700BFCB
:102F100090ED024A90ED0A6A90ED012A90ED053A93
:102F200024EE004A90ED035A34EE064A20EE022ABF
:102F3000D0E90C1230EE410AB4EE434A80ED0C0A9F
:102F400020EE050AF1EE10FA80ED092A80ED0A4A1A
:102F5000C0E90D1280ED0B0A06DCB1EE433AB4EE87
:102F6000434AF1EE10FA03DAB0EE434A80ED0A3A32
:102F700032EE042A90ED041A30EE020AB4EE410A51
:102F8000F1EE10FA80ED080A07DCB1EE411AB4EE5A
:102F9000410AF1EE10FAA8BF7047B0EE410A80ED89
:102FA000081A704790ED080A704700BF0000000043
:102FB000002808BF704780B518303021FDF7CCF9E4
:102FC00080BD0000002818BF002A01D1704700BF53
:102FD00080B501701168416051688160916880ED31
:102FE000040AC160C0ED050A20302821FDF7B4F9BC
:102FF00080BD00007047000070470000FDF70CBD69
:10300000B0B592B0002443F64000CDE90A44CDE9C2
:1030100008440594CDE90344CDE901440094C4F289
:1030200002000168022541F080510160006800F053
:1030300080500090009847F200000094C4F2000015
:10304000016841F4804101600068482100F480403B
:1030500000900098012006904FF4803007904FF4C4
:1030600080000D9004200E90119006A80C95CDE9DB
:103070000F15FDF799FE28B1EFF3108072B600BF6F
:10308000FEE700BF0F20CDE901054FF48050CDE9E8
:10309000040401A802210394FDF778FD20B1EFF3A9
:1030A000108072B6FEE700BF12B0B0BD4EF6885079
:1030B000CEF20000016841F4700101607047000029
:1030C00040F20C20C2F20000FEF788BB40F2542010
:1030D000C2F20000FEF782BB40F29C20C2F2000068
:1030E000FEF77CBB40F2E420C2F20000FEF776BBA4
:1030F00010B540F6FF3E0368C4F2000E40F2004CEB
:103100007045C4F2010C27DCB0F1804F31D040F2A1
:103110000042C4F2000290422BD040F60002C4F2FA
:103120000002904225D041F6FF72C4F200029042A4
:1031300029DC70453CDCB0F1804F5FD040F20042AA
:10314000C4F20002904259D040F60002C4F20002DC
:10315000904253D056E000BF40F60042C4F2000255
:10316000904206D0604504D00022C4F20102904291
:10317000D9D14A6823F07003134341F6FF72C4F2B9
:1031800000029042D5DD43F6FF72C4F20102904284
:1031900022DC42F20002C4F2000290422ED0002251
:1031A000C4F20102904229D0604527D02AE000BF36
:1031B00040F60042C4F2000290421FD041F60002E5
:1031C000C4F20002904219D041F60042C4F200025B
:1031D000904213D016E000BF44F20002C4F2010294
:1031E00090420BD044F60002C4F20102904205D096
:1031F00044F20042C4F20102904203D1CA6823F4AF
:103200004073134323F080024B69D1F800E08C68CF
:103210001A430260C46240F48062C0F828E062454C
:1032200004BF096901630121416110BD2DE9F04F1F
:1032300081B02DED048B82B040F2B839C2F20009A2
:1032400040F600444846C4F20204FFF7B1FE09F11B
:1032500048063046FFF7ACFE9FEDC38A9FEDC39A48
:1032600044F2CC52C0F6000248460021B0EE480AB3
:10327000F0EE490AFFF7A6FE44F2D852C0F600026B
:1032800030460021B0EE480AF0EE490A0196FFF7F9
:1032900099FE40F2700844F6206A42F2107BC2F2B6
:1032A0000008A4F50067002508E000BF28203C21A5
:1032B000A8F80A10A8F80C0000F0DEFD40F2244245
:1032C000C4F200021068242681B2594588BFAAEBD7
:1032D0000000A8F802001560C4F20106316802B2CD
:1032E0008BB25B4588BFAAEB0101A8F80010A8F8D3
:1032F00004103560A8F80600B8F90A0000EE102A9C
:1033000001EE100AB8EEC00AF8EEC10A4846A8F865
:103310000810FFF79FFDB8F90800B8F90C1000EE8F
:10332000100A01EE101A0198B8EEC00AF8EEC10AB0
:10333000FFF790FD99ED080A99ED1A1A44F234004E
:10334000BCEEC00AC4F2010080ED000ABCEEC10A66
:1033500080ED010A3220FDF765FA38464FF400414E
:10336000FDF748FB00EE100AB8EE400A20460221A5
:1033700088ED050AFDF73EFB00EE100AB8EE400AA4
:103380003846202188ED060AFDF734FB00EE100ACE
:10339000B8EE400A2046082188ED070AFDF72AFB0F
:1033A00000EE100AB8EE400A2046102188ED080A07
:1033B000FDF720FB00EE100AB8EE400A204620215F
:1033C00088ED090AFDF716FB00EE100AB8EE400A78
:1033D00020464FF4807188ED0A0AFDF70BFB00EEE2
:1033E000100AB8EE400A20464FF4007188ED0B0A2F
:1033F000FDF700FB00EE100AA4F58066B8EE400A67
:1034000030464FF4806188ED0C0AFDF7F3FA00EEC8
:10341000100AB8EE400A30464FF4006188ED0D0AFC
:10342000FDF7E8FA00EE100AB8EE400A30464FF415
:10343000805188ED0E0AFDF7DDFA00EE100AB8EEB5
:10344000400A2046802188ED0F0AFDF7D3FA00EEEE
:10345000100AB8EE400A3846082188ED100AFDF738
:10346000C9FA00EE100AB8EE400A20464FF4806117
:1034700088ED110AFDF7BEFA00EE100AB8EE400A18
:103480003846202188ED120AFDF7B4FA50B92046DB
:103490000821FDF7AFFA28B920461021FDF7AAFA56
:1034A000002859D038462021FDF7A4FA50B920460B
:1034B0000821FDF79FFA012804D120461021FDF7CD
:1034C00099FA88B138462021FDF794FA01280FD1E6
:1034D00020460821FDF78EFA012809D12046102147
:1034E000FDF788FA012803D13C213C20E0E600BF2B
:1034F00038462021FDF77EFA01280BD1204608210D
:10350000FDF778FA30B920461021FDF773FA00284C
:103510003FF4CCAE20460221FDF76CFA01283FF4BF
:10352000C5AE38462021FDF765FA58B92046082176
:10353000FDF760FA30B920461021FDF75BFA01284B
:1035400007D000BF20462021FDF754FA01287FF460
:10355000B5AE3C202821ABE602B0BDEC048B01B037
:10356000BDE8F04F00F06CBC00803B450000C84255
:103570002DE9F04F81B040F22449C4F20009D9F896
:10358000000040F2700681B242F2107BC2F20006E7
:103590000027242444F62068594588BFA8EB000082
:1035A0007080C9F80070C4F20104216802B28BB2C5
:1035B0005B4588BFA8EB01013180B1802760F080B6
:1035C000B6F90A0040F2B83A00EE102A01EE100AED
:1035D000C2F2000AB8EEC00AF8EEC10A50463181C4
:1035E000FFF738FCB6F90800B6F90C1000EE100A27
:1035F00001EE101A0AF14807B8EEC00AF8EEC10A47
:103600003846FFF727FC9AED080A9AED1A1A44F299
:103610003400BCEEC00AC4F2010080ED000ABCEE2A
:10362000C10A80ED010A3220FDF7FCF800F0ECFB46
:10363000D9F80000002581B2594588BFA8EB0000E9
:103640007080C9F80050216802B28BB25B4588BF18
:10365000A8EB01013180B1802560F080B6F90A0045
:1036600000EE102A01EE100AB8EEC00AF8EEC10A08
:1036700050464FF000083181FFF7ECFBB6F9080027
:10368000B6F90C1000EE100A01EE101AB8EEC00ADE
:10369000F8EEC10A3846BB46FFF7DCFB9AED080A94
:1036A0009AED1A1A44F23400BCEEC00AC4F20100CA
:1036B00080ED000ABCEEC10A80ED010A3220FDF760
:1036C000B1F800F0A1FB40F22442C4F200021068FD
:1036D00042F2107781B2B94244F6206588BF281AB9
:1036E0007080C2F80080216802B28BB2BB4288BFF2
:1036F000691A3180B180C4F80080F080B6F90A0000
:1037000000EE102A01EE100AB8EEC00AF8EEC10A67
:10371000504642F2107744F620693181FFF79AFB58
:10372000B6F90800B6F90C1000EE100A01EE101AF6
:10373000B8EEC00AF8EEC10A5846FFF78BFB9AEDC7
:10374000080A9AED1A1A44F23405BCEEC00AC4F213
:10375000010585ED000ABCEEC10A322085ED010AA3
:10376000A846FDF75FF800F04FFB40F22442C4F298
:1037700000021068002581B2B94288BFA9EB0000A1
:1037800070801560216802B28BB2BB4288BFA9EB82
:1037900001013180B1802560F080B6F90A0000EEA9
:1037A000102A01EE100AB8EEC00AF8EEC10A50461F
:1037B00000253181FFF74EFBB6F90800B6F90C1071
:1037C00000EE100A01EE101AB8EEC00AF8EEC10AB7
:1037D0005846FFF73FFB9AED080A9AED1A1ABCEE1D
:1037E000C00A88ED000ABCEEC10A322088ED010A49
:1037F000FDF718F800F008FB40F22442C4F2000282
:10380000106881B2B94288BFA9EB000070801560D2
:10381000216802B28BB2BB4288BFA9EB01013180A3
:10382000B1802560F080B6F90A0000EE102A01EEA2
:10383000100AB8EEC00AF8EEC10A50463181FFF70F
:1038400009FBB6F90800B6F90C1000EE100A01EEFB
:10385000101AB8EEC00AF8EEC10A5846FFF7FAFA95
:103860009AED080A9AED1A1ABCEEC00A88ED000A11
:10387000BCEEC10A322088ED010AFCF7D3FF00F04C
:10388000C3FA40F22449C4F20009D9F8000042F218
:10389000107581B24FF0000CA94244F6206788BF32
:1038A000381A7080C9F800C0216802B28BB2AB42EE
:1038B00088BF791A3180B180C4F800C0F080B6F9B1
:1038C0000A0000EE102A01EE100AB8EEC00AF8EE67
:1038D000C10A50464FF000083181FFF7BBFAB6F934
:1038E0000800B6F90C1000EE100A01EE101AB8EE3E
:1038F000C00AF8EEC10A5846FFF7ACFA9AED080A7A
:103900009AED1A1A44F23407BCEEC00AC4F2010759
:1039100087ED000ABCEEC10A322087ED010AFCF7F0
:1039200081FF00F071FAD9F8000042F2107581B2FF
:10393000A94244F6206C88BFACEB00007080C9F847
:103940000080216802B28BB2AB4288BFACEB0101B0
:103950003180B180C4F80080F080B6F90A0000EE32
:10396000102A01EE100AB8EEC00AF8EEC10A50465D
:103970003181FFF76FFAB6F90800B6F90C1000EEC6
:10398000100A01EE101AB8EEC00AF8EEC10A584645
:10399000FFF760FA9AED080A9AED1A1ABCEEC00A0F
:1039A00087ED000ABCEEC10A322087ED010AFCF760
:1039B00039FF00F029FA01B0BDE8F04F00F040BA3D
:1039C0002DE9F04F81B02DED048B82B040F2B83577
:1039D000C2F2000540F600042846C4F20204FFF7D4
:1039E000E7FA05F1480B5846FFF7E2FA9FED818AA6
:1039F0009FED819A44F2CC52C0F600022846002185
:103A0000B0EE480AF0EE490A0027FFF7DBFA44F26D
:103A1000D852C0F6000258460021B0EE480AF0EE37
:103A2000490AFFF7CFFA40F2700A242644F62068CC
:103A300042F21079C2F2000A04F58060C4F2010675
:103A4000019007E020464FF48061FCF7D3FF002887
:103A500000F0A68040F22442C4F20002106881B255
:103A6000494588BFA8EB0000AAF80200176031683A
:103A700002B28BB24B4588BFA8EB0101AAF8001037
:103A8000AAF804103760AAF80600BAF90A0000EE96
:103A9000102A01EE100AB8EEC00AF8EEC10A284654
:103AA000AAF80810FFF7D6F9BAF90800BAF90C100D
:103AB00000EE100A01EE101AB8EEC00AF8EEC10AC4
:103AC0005846FFF7C7F995ED080A95ED1A1A44F222
:103AD0003400BCEEC00AC4F2010080ED000ABCEE66
:103AE000C10A80ED010A3220FCF79CFE20464FF40B
:103AF0008061FCF77FFF01280CD120464FF48051F4
:103B0000FCF778FF012805D101988021FCF772FFAE
:103B1000012867D020464FF48061FCF76BFF68B93D
:103B200020464FF48051FCF765FF012806D101982B
:103B30008021FCF75FFF00284CD000BF20464FF4E7
:103B40008061FCF757FF58B920464FF48051FCF7CD
:103B500051FF28B901988021FCF74CFFD0B300BF7A
:103B600020464FF48061FCF745FF01287FF46AAFDF
:103B700020464FF48051FCF73DFF00287FF462AFF0
:103B800001988021FCF736FF00287FF45BAF3C20D2
:103B9000CAF80A0000F038F90120CAF8100059E705
:103BA00020464FF48051FCF725FF00287FF452AFE8
:103BB00001988021FCF71EFF01287FF44BAF4FF4E2
:103BC0007010CAF80A0000F01FF90220CAF81000AD
:103BD00040E700BF4FF03C10CAF80A0000F014F9AB
:103BE00038E700BF02B0BDEC048B01B0BDE8F04F78
:103BF00000F026B900803B450000C842806B0021E0
:103C0000C185C184FEF75CBA81B090F83E102229CC
:103C100021D183680246B3F5805F09D152F8281F8D
:103C200052F8183C002B63D003685B680AE000BFC1
:103C300052F8281F13B90369002BF5D003685B689D
:103C400003F07F030B70116801311160C18D0139E0
:103C50000A04C18502D001B0704700BF0168CA687C
:103C600022F02002CA60CA6822F48072CA604A69DF
:103C700022F001024A61202180F83E10016B0129E7
:103C80003ED10021016300BF016851E8031F0268B3
:103C900021F0100142E80313DBB1016851E8031F72
:103CA000026821F0100142E8031393B1016851E862
:103CB000031F026821F0100142E803134BB10168B1
:103CC00051E8031F026821F0100142E80313002BA2
:103CD000DAD101680A68D20606D5002200920A6885
:103CE0000092496800910099818D01B0FEF7E6B914
:103CF000026852686FF35F2221F8022B8162A5E708
:103D000001B0FEF73FBD000010B504460068D4E9DD
:103D100002C22369016921F44051114301616269C2
:103D200043EA0C01E3691143C268194349F20C6389
:103D30009A431143C1604169A26921F4407141F283
:103D40000043114340F48062C4F201039A4241618E
:103D500002D1FCF7DFFF01E0FCF7C8FFE16963680F
:103D60001922B1F5004FA0FB020123D15A00DB0F4D
:103D7000FCF77AFA48F21F51C5F2EB11A0FB0123C0
:103D80005A094FF69C73C0F6FF7303F1805302FB90
:103D90000300322303EBC000A0FB01014FF4F870D5
:103DA00000EA111000EB0210C1F34211084421682F
:103DB000886010BD9A009B0FFCF756FA48F21F511D
:103DC000C5F2EB11A0FB01235A094FF69C73C0F614
:103DD000FF7302FB0300322303EB0010A0FB010181
:103DE000F02000EA511000EB0210C1F34311084427
:103DF0002168886010BD000040F27430C2F20000FB
:103E0000FEF760B9FEE7000010B50024C4F202041A
:103E1000204608210122FCF7F3FD20461021002254
:103E2000FCF7EEFD04F50064204610210122FCF7AA
:103E3000E7FD204620210022BDE81040FCF7E0BD50
:103E400010B50024C4F20204204608210022FCF729
:103E5000D7FD204610210022FCF7D2FD04F50064B6
:103E6000204610210022FCF7CBFD20462021002215
:103E7000BDE81040FCF7C4BD10B50024C4F2020434
:103E8000204608210022FCF7BBFD2046102101221C
:103E9000FCF7B6FD04F50064204610210022FCF773
:103EA000AFFD204620210122BDE81040FCF7A8BD4F
:103EB000FCF7C0FDFFF7A4F8FEF78EFCFEF768FCE8
:103EC000FEF7A6FFFEF74AFDFEF712FEFEF744FEE0
:103ED000FEF7CCFEFEF730FFFEF776FDFEF756FF4D
:103EE000FEF77AFCFEF754FCFEF792FFFEF736FD74
:103EF000FEF7FEFDFEF730FEFEF7B8FEFEF71CFFF4
:103F0000FEF762FD40F22C34C2F20004204600218C
:103F1000FEF746F820460421FEF742F840F2C414AA
:103F2000C2F2000420460021FEF73AF820460421A0
:103F3000FEF736F820460821FEF732F840F27C10F2
:103F4000C2F200003C21FDF7E9FB40F20C20C2F276
:103F500000003C21FDF7E2FB40F2E420C2F2000049
:103F6000FDF7EEF94FF4FA6540F21A462068456312
:103F7000FFF75CF94FF47A70FCF754FC2068466355
:103F8000FFF71EFD4FF4FA60FCF74CFCFFF7F0FA68
:103F90000520FCF747FC00F0C7F9FFF747F9206858
:103FA00045634FF47A70FCF73DFCFFF709FD4FF4D1
:103FB000FA60FCF737FCFFF7DBFA00F0B5F9FFF722
:103FC00035F920684663FFF7FBFC4FF4FA60FCF715
:103FD00029FCFFF7CDFA0520FCF724FC00F00AF9D4
:103FE0000520FCF71FFC00F06BF8FFF71FF94FF4FA
:103FF0007A70FCF717FC20684563FFF7E1FC4FF48B
:10400000FA60FCF70FFCFFF7B3FA0520FCF70AFC97
:1040100000F056F8FFF70AF94FF47A70FCF702FC4B
:1040200020684663FFF7CCFC4FF4FA60FCF7FAFB1C
:10403000FFF79EFA0520FCF7F5FB00F00FFA4FF4AE
:10404000FA60FCF7EFFB00F009FAFFF7EFF88DE7F5
:1040500010B50024C4F20204204608210022FCF717
:10406000CFFC204610210122FCF7CAFC04F50064B5
:10407000204610210122FCF7C3FC2046202100220B
:10408000BDE81040FCF7BCBC10B50024C4F202042B
:10409000204608210122FCF7B3FC20461021002213
:1040A000FCF7AEFC04F50064204610210022FCF76A
:1040B000A7FC204620210122BDE81040FCF7A0BC4F
:1040C0002DE9F04F81B02DED048B40F2B834C2F2EF
:1040D000000440F2244A2046C4F2000AFEF768FFBA
:1040E00004F1480B5846FEF763FF40F270079FED5E
:1040F0003F8A9FED3F9AC2F200074FF01E1044F234
:10410000CC52C7F80A00C0F6000220460021B0EEEB
:10411000480AF0EE490A0026FEF754FF44F2D8524E
:10412000C0F6000258460021B0EE480AF0EE490AF7
:10413000FEF748FF122544F6206842F2107900BFCE
:10414000DAF80000242381B2494588BFA8EB0000BB
:104150007880CAF80060C4F2010319688AB24A453F
:1041600088BFA8EB01013980B9801E60F8803981D1
:10417000FFF78AFFB7F90600B7F90A1000EE100A38
:1041800001EE101AB8EEC00AF8EEC10A2046FEF79A
:1041900061FEB7F90800B7F90C1000EE100A01EE45
:1041A000101AB8EEC00AF8EEC10A5846FEF752FEE1
:1041B00094ED080A94ED1A1A44F23400BCEEC00AD9
:1041C000C4F2010080ED000ABCEEC10A80ED010AD4
:1041D0003220FCF727FBFFF757FF013DB0D1BDECC4
:1041E000048B01B0BDE8F04FFFF72ABE00803B45CD
:1041F0000000C8422DE9F04F81B02DED048B40F254
:10420000B834C2F2000440F2244A2046C4F2000A44
:10421000FEF7CEFE04F1480B5846FEF7C9FE40F209
:1042200070079FED3F8A9FED3F9AC2F200074FF063
:104230001E1044F2CC52C7F80A00C0F60002204615
:104240000021B0EE480AF0EE490A0026FEF7BAFE59
:1042500044F2D852C0F6000258460021B0EE480A97
:10426000F0EE490AFEF7AEFE252544F6206842F23C
:10427000107900BFDAF80000242381B2494588BFD5
:10428000A8EB00007880CAF80060C4F20103196846
:104290008AB24A4588BFA8EB01013980B9801E6007
:1042A000F8803981FFF7F0FEB7F90600B7F90A1078
:1042B00000EE100A01EE101AB8EEC00AF8EEC10ABC
:1042C0002046FEF7C7FDB7F90800B7F90C1000EE5D
:1042D000100A01EE101AB8EEC00AF8EEC10A5846EC
:1042E000FEF7B8FD94ED080A94ED1A1A44F2340072
:1042F000BCEEC00AC4F2010080ED000ABCEEC10AA7
:1043000080ED010A3220FCF78DFAFFF7BDFE013D7A
:10431000B0D1BDEC048B01B0BDE8F04FFFF790BD0C
:1043200000803B450000C8422DE9F04F81B02DEDE3
:10433000048B40F2B834C2F2000440F2244A204612
:10434000C4F2000AFEF734FE04F1480B5846FEF7AB
:104350002FFE40F270079FED3F8A9FED3F9AC2F219
:1043600000074FF01E1044F2CC52C7F80A00C0F606
:10437000000220460021B0EE480AF0EE490A00266D
:10438000FEF720FE44F2D852C0F600025846002143
:10439000B0EE480AF0EE490AFEF714FE122544F684
:1043A000206842F2107900BFDAF80000242381B2BD
:1043B000494588BFA8EB00007880CAF80060C4F2C5
:1043C000010319688AB24A4588BFA8EB0101398008
:1043D000B9801E60F8803981FFF73AFEB7F9060010
:1043E000B7F90A1000EE100A01EE101AB8EEC00A72
:1043F000F8EEC10A2046FEF72DFDB7F90800B7F91F
:104400000C1000EE100A01EE101AB8EEC00AF8EE19
:10441000C10A5846FEF71EFD94ED080A94ED1A1ADB
:1044200044F23400BCEEC00AC4F2010080ED000A80
:10443000BCEEC10A80ED010A3220FCF7F3F9FFF768
:1044400007FE013DB0D1BDEC048B01B0BDE8F04FDB
:10445000FFF7F6BC00803B450000C8422DE9F04F55
:1044600081B02DED048B40F2B834C2F2000440F26A
:10447000244A2046C4F2000AFEF79AFD04F1480BD4
:104480005846FEF795FD40F270079FED3F8A9FED7D
:104490003F9AC2F200074FF01E1044F2CC52C7F808
:1044A0000A00C0F6000220460021B0EE480AF0EEF5
:1044B000490A0026FEF786FD44F2D852C0F60002F3
:1044C00058460021B0EE480AF0EE490AFEF77AFDA0
:1044D000252544F6206842F2107900BFDAF8000082
:1044E000242381B2494588BFA8EB00007880CAF830
:1044F0000060C4F2010319688AB24A4588BFA8EB7C
:1045000001013980B9801E60F8803981FFF7A0FD74
:10451000B7F90600B7F90A1000EE100A01EE101AFA
:10452000B8EEC00AF8EEC10A2046FEF793FCB7F9D0
:104530000800B7F90C1000EE100A01EE101AB8EEE0
:10454000C00AF8EEC10A5846FEF784FC94ED080A4A
:1045500094ED1A1A44F23400BCEEC00AC4F2010011
:1045600080ED000ABCEEC10A80ED010A3220FCF7A2
:1045700059F9FFF76DFD013DB0D1BDEC048B01B0E1
:10458000BDE8F04FFFF75CBC00803B450000C8422F
:10459000F1EE100A4FF6FF71C0F2C03120EA0100BF
:1045A00040F04070E1EE100A70470000000000008B
:1045B00000000102030406070809000000000102D0
:1045C0000304000610160006101600000000FA4250
:1045D00000000000000080400000C8420000000011
:1045E0000000804008460008000000201000000085
:1045F000C40100081846000810000020400A00000E
:10460000E0010008000000000100000010000000B0
:084610000024F400000000008A
:040000050800018965
:00000001FF
